:1000000012C041C062C02AC029C028C027C026C073
:1000100025C024C023C022C021C020C01FC01EC0D4
:100020001DC01CC01BC011241FBECFE5D4E0DEBF25
:10003000CDBF10E0A0E6B0E0EAE8F2E002C0059033
:100040000D92A236B107D9F720E0A2E6B0E001C0D8
:100050001D92A736B207E1F799D015C1D1CF87E03D
:1000600088BB17BA8CE385BB14BA8DEE82BB81E0E6
:1000700081BB8FE085BD9EE393BD92EC94BD85BFAF
:1000800080EC8BBF08951F920F920FB60F92112430
:100090008F939F9380916500880F80936500809176
:1000A000640090916500892341F490989F918F910D
:1000B0000F900FBE0F901F901895909A9F918F915F
:1000C0000F900FBE0F901F9018951F920F920FB6B2
:1000D0000F9211248F939F9381E08093650080910C
:1000E000640090916500892369F490988091620082
:1000F0008F5F809362009F918F910F900FBE0F9042
:100100001F901895909AF2CF9B993EC050E023B370
:1001100020729A9937C040E09C9932C030E090B389
:10012000892F881F8827881F880F96B39170922B7C
:10013000952B942B932B892B859920C090E0892BAC
:1001400086991AC090E0892B80936400B29909C007
:10015000809164009091630092708D7F892B8093D1
:100160006400B19908C0809164009091630090FB95
:1001700080F980936400089594E0E5CF98E0DFCFA4
:1001800030E8CDCF40E4C8CF50E1C1CF87E088BB95
:1001900017BA8CE385BB14BA8DEE82BB81E081BBBC
:1001A0008FE085BD9EE393BD92EC94BD85BF80EC4E
:1001B0008BBF789455C050E023B320729A9957C0F2
:1001C00040E09C9957C030E090B3892F881F882762
:1001D000881F880F96B39170922B952B942B932B9D
:1001E000892B85994BC090E0892B869945C090E07A
:1001F000892B80936400B29909C08091640090912A
:10020000630092708D7F892B80936400B19908C040
:10021000809164009091630090FB80F9809364006A
:10022000809162008823C1F080916000909161000C
:100230002091660002C0969587952A95E2F7817015
:10024000982F990F890F809363001092620080911C
:1002500066008F5F80936600809166008F3080F427
:100260009B9BA9CF50E123B320729A9BA9CF40E476
:100270009C9BA9CF30E8A8CF94E0BACF98E0B4CF48
:0A02800010926600EDCFF894FFCF56
:02028A0095A934
:00000001FF
