:1000000012C041C062C02AC029C028C027C026C073
:1000100025C024C023C022C021C020C01FC01EC0D4
:100020001DC01CC01BC011241FBECFE5D4E0DEBF25
:10003000CDBF10E0A0E6B0E0EEEBF2E002C005902C
:100040000D92A236B107D9F720E0A2E6B0E001C0D8
:100050001D92A736B207E1F7A7D02FC1D1CF87E015
:1000600088BB17BA8CE385BB14BA8DEE82BB81E0E6
:1000700081BB8FE085BD9EE393BD92EC94BD85BFAF
:1000800080EC8BBF08951F920F920FB60F92112430
:100090008F939F9380916500880F80936500809176
:1000A000640090916500892341F490989F918F910D
:1000B0000F900FBE0F901F901895909A9F918F915F
:1000C0000F900FBE0F901F9018951F920F920FB6B2
:1000D0000F9211248F939F9381E08093650080910C
:1000E000640090916500892369F490988091620082
:1000F0008F5F809362009F918F910F900FBE0F9042
:100100001F901895909AF2CF08B607FE089588B709
:10011000806888BF8EE383BD82EC84BD9B9936C026
:1001200050E023B320729A9936C040E09C9936C0C3
:1001300030E090B3892F881F8827881F880F96B3D7
:100140009170922B952B942B932B892B85992AC0F8
:1001500090E0892B869924C090E0892B80936400DD
:10016000B29909C0809164009091630092708D7F74
:10017000892B80936400B199C9CF809164009091DC
:10018000630090FB80F980936400089550E123B3ED
:1001900020729A9BCACF40E49C9BCACF30E8C9CF5B
:1001A00094E0DBCF98E0D5CF87E088BB17BA8CE32B
:1001B00085BB14BA8DEE82BB81E081BB8FE085BD2B
:1001C0009EE393BD92EC94BD85BF80EC8BBF789489
:1001D0005EE342EC21C0809162008823C1F08091EF
:1001E0006000909161002091660002C0969587950D
:1001F0002A95E2F78170982F990F890F80936300F9
:1002000010926200809166008F5F809366008091FB
:1002100066008F3008F040C008B607FEDCCF88B714
:10022000806888BF53BD44BD9B9939C070E023B33B
:1002300020729A9939C060E09C9939C030E090B33F
:10024000892F881F8827881F880F96B39170922B5B
:10025000972B962B932B892B85992DC090E0892B7A
:10026000869927C090E0892B80936400B29909C0D9
:10027000809164009091630092708D7F892B8093B0
:100280006400B199A8CF809164009091630090FBC5
:1002900080F9809364009FCF10926600BDCF70E11B
:1002A00023B320729A9BC7CF60E49C9BC7CF30E8F2
:0E02B000C6CF94E0D8CF98E0D2CFF894FFCF1D
:0202BE0095A900
:00000001FF
